{
  "contractName": "AshyaDevice",
  "abi": [
    {
      "constant": true,
      "inputs": [
        {
          "name": "",
          "type": "uint256"
        }
      ],
      "name": "urls",
      "outputs": [
        {
          "name": "",
          "type": "string"
        }
      ],
      "payable": false,
      "stateMutability": "view",
      "type": "function"
    },
    {
      "constant": true,
      "inputs": [],
      "name": "owner",
      "outputs": [
        {
          "name": "",
          "type": "address"
        }
      ],
      "payable": false,
      "stateMutability": "view",
      "type": "function"
    },
    {
      "inputs": [
        {
          "name": "_name",
          "type": "string"
        },
        {
          "name": "_location",
          "type": "string"
        },
        {
          "name": "_url",
          "type": "string"
        }
      ],
      "payable": false,
      "stateMutability": "nonpayable",
      "type": "constructor"
    },
    {
      "constant": false,
      "inputs": [
        {
          "name": "registryAddress",
          "type": "address"
        }
      ],
      "name": "registerDevice",
      "outputs": [],
      "payable": true,
      "stateMutability": "payable",
      "type": "function"
    },
    {
      "constant": false,
      "inputs": [
        {
          "name": "newUrl",
          "type": "string"
        }
      ],
      "name": "addURL",
      "outputs": [],
      "payable": true,
      "stateMutability": "payable",
      "type": "function"
    },
    {
      "constant": true,
      "inputs": [],
      "name": "getURLCount",
      "outputs": [
        {
          "name": "count",
          "type": "uint256"
        }
      ],
      "payable": false,
      "stateMutability": "view",
      "type": "function"
    }
  ],
  "bytecode": "0x606060405266038d7ea4c68000600055341561001a57600080fd5b6040516106e63803806106e68339810160405280805182019190602001805182019190602001805182019190505033600560006101000a81548173ffffffffffffffffffffffffffffffffffffffff021916908373ffffffffffffffffffffffffffffffffffffffff160217905550826001908051906020019061009f9291906100d6565b5081600290805190602001906100b69291906100d6565b5080600390805190602001906100cd9291906100d6565b5050505061017b565b828054600181600116156101000203166002900490600052602060002090601f016020900481019282601f1061011757805160ff1916838001178555610145565b82800160010185558215610145579182015b82811115610144578251825591602001919060010190610129565b5b5090506101529190610156565b5090565b61017891905b8082111561017457600081600090555060010161015c565b5090565b90565b61055c8061018a6000396000f30060606040526004361061006d576000357c0100000000000000000000000000000000000000000000000000000000900463ffffffff1680636dc7b9a514610072578063796676be146100a05780638da5cb5b1461013c578063d103449c14610191578063e3cda823146101e3575b600080fd5b61009e600480803573ffffffffffffffffffffffffffffffffffffffff1690602001909190505061020c565b005b34156100ab57600080fd5b6100c160048080359060200190919050506102ac565b6040518080602001828103825283818151815260200191508051906020019080838360005b838110156101015780820151818401526020810190506100e6565b50505050905090810190601f16801561012e5780820380516001836020036101000a031916815260200191505b509250505060405180910390f35b341561014757600080fd5b61014f610368565b604051808273ffffffffffffffffffffffffffffffffffffffff1673ffffffffffffffffffffffffffffffffffffffff16815260200191505060405180910390f35b6101e1600480803590602001908201803590602001908080601f0160208091040260200160405190810160405280939291908181526020018383808284378201915050505050509190505061038e565b005b34156101ee57600080fd5b6101f66103de565b6040518082815260200191505060405180910390f35b600560009054906101000a900473ffffffffffffffffffffffffffffffffffffffff1673ffffffffffffffffffffffffffffffffffffffff163373ffffffffffffffffffffffffffffffffffffffff1614151561026857600080fd5b80600660006101000a81548173ffffffffffffffffffffffffffffffffffffffff021916908373ffffffffffffffffffffffffffffffffffffffff16021790555050565b6004818154811015156102bb57fe5b90600052602060002090016000915090508054600181600116156101000203166002900480601f0160208091040260200160405190810160405280929190818152602001828054600181600116156101000203166002900480156103605780601f1061033557610100808354040283529160200191610360565b820191906000526020600020905b81548152906001019060200180831161034357829003601f168201915b505050505081565b600560009054906101000a900473ffffffffffffffffffffffffffffffffffffffff1681565b600054341015151561039f57600080fd5b600480548060010182816103b391906103eb565b9160005260206000209001600083909190915090805190602001906103d9929190610417565b505050565b6000600480549050905090565b815481835581811511610412578183600052602060002091820191016104119190610497565b5b505050565b828054600181600116156101000203166002900490600052602060002090601f016020900481019282601f1061045857805160ff1916838001178555610486565b82800160010185558215610486579182015b8281111561048557825182559160200191906001019061046a565b5b50905061049391906104c3565b5090565b6104c091905b808211156104bc57600081816104b391906104e8565b5060010161049d565b5090565b90565b6104e591905b808211156104e15760008160009055506001016104c9565b5090565b90565b50805460018160011615610100020316600290046000825580601f1061050e575061052d565b601f01602090049060005260206000209081019061052c91906104c3565b5b505600a165627a7a72305820b8514fec77d17b3af7ce5cb17ce4891cfebfcb57c312bcee36752f4a1ff7157b0029",
  "source": "pragma solidity ^0.4.19;\n\n\nimport \"./AshyaRegistry.sol\";\n\ncontract AshyaDevice {\n    uint price = 0.0010 ether;\n    string name; /* the name of this device */\n    string location; /* my location where this device is */\n    string url; /* my URL where people can find more information about me */\n    string[] public urls; /* list of URLs that I can send data to */\n    address public owner;\n    AshyaRegistry registry;\n\n    /* only the device owner can register the device. */ \n    modifier OwnerOnly() {\n      require(msg.sender == owner);\n      _;\n    }\n\n    /* people who want to use this device will need to pay */\n    modifier CheckPrice()\n    {\n        require(msg.value >= price);\n        _;\n    }\n\n    function AshyaDevice(string _name, string _location, string _url) public {\n      owner = msg.sender;\n      name = _name;\n      location = _location;\n      url = _url;\n    }\n\n    function registerDevice(address registryAddress) \n             public \n             payable \n             OwnerOnly() {\n        registry = AshyaRegistry(registryAddress);\n        //registry.addItem.value(msg.value)(name,location,url);\n    }\n\n    function addURL(string newUrl)public payable CheckPrice(){\n        urls.push(newUrl);\n    }\n\n    function getURLCount()public constant returns(uint count) {\n        return urls.length;\n        \n    }\n}\n\n",
  "sourcePath": "/Users/vallard/Code/CiscoBlockChain/AshyaRegistry/contracts/AshyaDevice.sol",
  "compiler": {
    "name": "solc",
    "version": "0.4.21+commit.dfe3193c.Emscripten.clang"
  },
  "schemaVersion": "2.0.0",
  "updatedAt": "2018-05-09T09:00:51.160Z"
}