{
  "contractName": "AshyaDevice",
  "abi": [
    {
      "constant": true,
      "inputs": [],
      "name": "owner",
      "outputs": [
        {
          "name": "",
          "type": "address"
        }
      ],
      "payable": false,
      "stateMutability": "view",
      "type": "function"
    },
    {
      "inputs": [
        {
          "name": "AshyaRegistryAddress",
          "type": "address"
        },
        {
          "name": "name",
          "type": "string"
        },
        {
          "name": "location",
          "type": "string"
        },
        {
          "name": "url",
          "type": "string"
        }
      ],
      "payable": true,
      "stateMutability": "payable",
      "type": "constructor"
    },
    {
      "constant": false,
      "inputs": [
        {
          "name": "url",
          "type": "string"
        }
      ],
      "name": "AddUrl",
      "outputs": [],
      "payable": true,
      "stateMutability": "payable",
      "type": "function"
    },
    {
      "constant": true,
      "inputs": [],
      "name": "getUrlsCount",
      "outputs": [
        {
          "name": "count",
          "type": "uint256"
        }
      ],
      "payable": false,
      "stateMutability": "view",
      "type": "function"
    }
  ],
  "bytecode": "0x606060405266038d7ea4c6800060015533600260006101000a81548173ffffffffffffffffffffffffffffffffffffffff021916908373ffffffffffffffffffffffffffffffffffffffff1602179055506040516105ef3803806105ef833981016040528080519060200190919080518201919060200180518201919060200180518201919050506001543414151561009757600080fd5b83600360006101000a81548173ffffffffffffffffffffffffffffffffffffffff021916908373ffffffffffffffffffffffffffffffffffffffff160217905550600360009054906101000a900473ffffffffffffffffffffffffffffffffffffffff1673ffffffffffffffffffffffffffffffffffffffff1663339ba3496001548585856040518563ffffffff167c010000000000000000000000000000000000000000000000000000000002815260040180806020018060200180602001848103845287818151815260200191508051906020019080838360005b8381101561018f578082015181840152602081019050610174565b50505050905090810190601f1680156101bc5780820380516001836020036101000a031916815260200191505b50848103835286818151815260200191508051906020019080838360005b838110156101f55780820151818401526020810190506101da565b50505050905090810190601f1680156102225780820380516001836020036101000a031916815260200191505b50848103825285818151815260200191508051906020019080838360005b8381101561025b578082015181840152602081019050610240565b50505050905090810190601f1680156102885780820380516001836020036101000a031916815260200191505b5096505050505050506000604051808303818588803b15156102a957600080fd5b6125ee5a03f115156102ba57600080fd5b505050505050505061031e806102d16000396000f300606060405260043610610057576000357c0100000000000000000000000000000000000000000000000000000000900463ffffffff1680631014c0d31461005c5780635dd9e1b8146100ae5780638da5cb5b146100d7575b600080fd5b6100ac600480803590602001908201803590602001908080601f0160208091040260200160405190810160405280939291908181526020018383808284378201915050505050509190505061012c565b005b34156100b957600080fd5b6100c161017b565b6040518082815260200191505060405180910390f35b34156100e257600080fd5b6100ea610187565b604051808273ffffffffffffffffffffffffffffffffffffffff1673ffffffffffffffffffffffffffffffffffffffff16815260200191505060405180910390f35b6001543414151561013c57600080fd5b6000805480600101828161015091906101ad565b9160005260206000209001600083909190915090805190602001906101769291906101d9565b505050565b60008080549050905090565b600260009054906101000a900473ffffffffffffffffffffffffffffffffffffffff1681565b8154818355818115116101d4578183600052602060002091820191016101d39190610259565b5b505050565b828054600181600116156101000203166002900490600052602060002090601f016020900481019282601f1061021a57805160ff1916838001178555610248565b82800160010185558215610248579182015b8281111561024757825182559160200191906001019061022c565b5b5090506102559190610285565b5090565b61028291905b8082111561027e576000818161027591906102aa565b5060010161025f565b5090565b90565b6102a791905b808211156102a357600081600090555060010161028b565b5090565b90565b50805460018160011615610100020316600290046000825580601f106102d057506102ef565b601f0160209004906000526020600020908101906102ee9190610285565b5b505600a165627a7a723058208492d005239e5d0b6359ce3d8d960ddc4ab7da67c71fd46b262549273b31a3dc0029",
  "source": "pragma solidity ^0.4.19;\n\ncontract AshyaDevice {\n    //address AshyaRegistryAddress= 0x35ef07393b57464e93deb59175ff72e6499450cf;\n    string[] urls;\n    uint AddingPrice = 0.0010 ether;\n    address public owner = msg.sender;\n    AshyaRegistry deviceObj;\n\n    modifier CheckPrice(){\n        require(msg.value == AddingPrice);\n        _;\n    }\n\n    function AshyaDevice(address AshyaRegistryAddress, string name, string location, string url) public payable CheckPrice() {\n        deviceObj = AshyaRegistry(AshyaRegistryAddress);\n        deviceObj.addItem.value(AddingPrice)(name,location,url);\n    \n    }\n\n    function AddUrl(string url)public payable CheckPrice(){\n        urls.push(url);\n        \n    }\n    function getUrlsCount()public constant returns(uint count) {\n        return urls.length;\n        \n    }\n}\n\n\ncontract AshyaRegistry{\n\n    uint price = 0.0010 ether;\n    struct item{\n        string name;\n        string url;\n        string location;\n        address ownerAddress;\n        uint index;\n    }\n    mapping(address => item) itemList;\n    address[] itemIndex;\n\n\n    modifier CheckPrice()\n    {\n        require(msg.value >= price);\n        _;\n    }\n    modifier onlyBy(address _itemAddress)\n    {\n        require(msg.sender == AshyaDevice(_itemAddress).owner());\n        _;\n    }\n    \n    modifier canAdd(string _name, string _url, string _location) \n    {\n        bool newItem = true;\n        for(uint i = 0; i < getItemCount(); i++){\n            address itemAddress = getItemAtIndex(i);\n            if ((keccak256(itemList[itemAddress].name) == keccak256(_name)) && (keccak256(itemList[itemAddress].location) == keccak256(_location)) && (keccak256(itemList[itemAddress].url) == keccak256(_url))) {\n                newItem = false;\n            }\n        }\n        require(newItem);\n        _;\n    }\n\n    function AshyaRegistry()public{\n        itemIndex.length = 0;\n        \n    }\n    \n    function getItemCount()public constant returns(uint count){\n        return itemIndex.length;\n    }\n    function addItem(string _name, string _location, string _url) public payable CheckPrice canAdd(_name,_location,_url){\n        itemList[msg.sender].name = _name;\n        itemList[msg.sender].location = _location;\n        itemList[msg.sender].url= _url;\n        itemList[msg.sender].index = itemIndex.push(msg.sender)-1;\n\n\n    }\n    function removeItem(address _itemAddress)public onlyBy(_itemAddress){\n        uint rowToDelete = itemList[_itemAddress].index;\n        address keyToMove = itemIndex[itemIndex.length-1];\n        itemIndex[rowToDelete] = keyToMove;\n        itemList[keyToMove].index = rowToDelete;\n        itemIndex.length--;\n    }\n    function getItem(address itemAddress)public constant returns(string name, string location, string url, uint index)\n    {\n        return(itemList[itemAddress].name,itemList[itemAddress].location,itemList[itemAddress].url,itemList[itemAddress].index);\n    }\n    function getItemAtIndex(uint index) public constant returns(address itemAddress) {\n        return itemIndex[index];\n        \n    }\n}",
  "sourcePath": "/Users/sajustin/AshyaProject/AshyaRegistry/contracts/ashyaRegistry.sol",
  "compiler": {
    "name": "solc",
    "version": "0.4.19+commit.c4cbbb05.Emscripten.clang"
  },
  "schemaVersion": "1.0.1",
  "updatedAt": "2018-05-02T10:16:45.771Z"
}