{
  "contractName": "AshyaDevice",
  "abi": [
    {
      "inputs": [
        {
          "name": "name",
          "type": "string"
        },
        {
          "name": "location",
          "type": "string"
        },
        {
          "name": "url",
          "type": "string"
        },
        {
          "name": "ownerAddress",
          "type": "address"
        }
      ],
      "payable": true,
      "stateMutability": "payable",
      "type": "constructor"
    },
    {
      "constant": false,
      "inputs": [
        {
          "name": "url",
          "type": "string"
        }
      ],
      "name": "addNewUrl",
      "outputs": [],
      "payable": false,
      "stateMutability": "nonpayable",
      "type": "function"
    },
    {
      "constant": false,
      "inputs": [
        {
          "name": "url",
          "type": "string"
        }
      ],
      "name": "removeUrl",
      "outputs": [],
      "payable": false,
      "stateMutability": "nonpayable",
      "type": "function"
    }
  ],
  "bytecode": "0x606060405260405161062f38038061062f833981016040528080518201919060200180518201919060200180518201919060200180519060200190919050506000739dd1e8169e76a9226b07ab9f85cc20a5e1ed44dd90508073ffffffffffffffffffffffffffffffffffffffff16639958ea9d86868630876040518663ffffffff167c0100000000000000000000000000000000000000000000000000000000028152600401808060200180602001806020018673ffffffffffffffffffffffffffffffffffffffff1673ffffffffffffffffffffffffffffffffffffffff1681526020018573ffffffffffffffffffffffffffffffffffffffff1673ffffffffffffffffffffffffffffffffffffffff168152602001848103845289818151815260200191508051906020019080838360005b8381101561014f578082015181840152602081019050610134565b50505050905090810190601f16801561017c5780820380516001836020036101000a031916815260200191505b50848103835288818151815260200191508051906020019080838360005b838110156101b557808201518184015260208101905061019a565b50505050905090810190601f1680156101e25780820380516001836020036101000a031916815260200191505b50848103825287818151815260200191508051906020019080838360005b8381101561021b578082015181840152602081019050610200565b50505050905090810190601f1680156102485780820380516001836020036101000a031916815260200191505b5098505050505050505050600060405180830381600087803b151561026c57600080fd5b5af1151561027957600080fd5b505050505050505061039f806102906000396000f30060606040526004361061004c576000357c0100000000000000000000000000000000000000000000000000000000900463ffffffff1680632f20270a146100515780637601a0ba146100ae575b600080fd5b341561005c57600080fd5b6100ac600480803590602001908201803590602001908080601f0160208091040260200160405190810160405280939291908181526020018383808284378201915050505050509190505061010b565b005b34156100b957600080fd5b610109600480803590602001908201803590602001908080601f0160208091040260200160405190810160405280939291908181526020018383808284378201915050505050509190505061023f565b005b6000739dd1e8169e76a9226b07ab9f85cc20a5e1ed44dd90508073ffffffffffffffffffffffffffffffffffffffff1663f1f07c5430846040518363ffffffff167c0100000000000000000000000000000000000000000000000000000000028152600401808373ffffffffffffffffffffffffffffffffffffffff1673ffffffffffffffffffffffffffffffffffffffff16815260200180602001828103825283818151815260200191508051906020019080838360005b838110156101df5780820151818401526020810190506101c4565b50505050905090810190601f16801561020c5780820380516001836020036101000a031916815260200191505b509350505050600060405180830381600087803b151561022b57600080fd5b5af1151561023857600080fd5b5050505050565b6000739dd1e8169e76a9226b07ab9f85cc20a5e1ed44dd90508073ffffffffffffffffffffffffffffffffffffffff166399a020aa30846040518363ffffffff167c0100000000000000000000000000000000000000000000000000000000028152600401808373ffffffffffffffffffffffffffffffffffffffff1673ffffffffffffffffffffffffffffffffffffffff16815260200180602001828103825283818151815260200191508051906020019080838360005b838110156103135780820151818401526020810190506102f8565b50505050905090810190601f1680156103405780820380516001836020036101000a031916815260200191505b509350505050600060405180830381600087803b151561035f57600080fd5b5af1151561036c57600080fd5b50505050505600a165627a7a7230582005190963fc609ecf7b1722fe8fba70fe18abcbc0f20e8cb2a9dc89fa65ac30110029",
  "source": "pragma solidity ^0.4.19;\n\ncontract AshyaDevice {\n    \n    // The address must match the one of the newly created AshyaRegistry Contract \n    address constant AshyaRegistryAddress=0x9dd1e8169e76a9226b07ab9f85cc20a5e1ed44dd;\n\n    function AshyaDevice(string name, string location, string url, address ownerAddress) public payable {\n        AshyaRegistry DeviceObj = AshyaRegistry(AshyaRegistryAddress);\n        return DeviceObj.addItem(name,location,url, address(this), ownerAddress);  }\n    \n    function addNewUrl(string url) public {\n        AshyaRegistry DeviceObj = AshyaRegistry(AshyaRegistryAddress);\n        DeviceObj.addUrl(address(this), url);\n    }\n    \n    function removeUrl(string url) public {\n        AshyaRegistry DeviceObj = AshyaRegistry(AshyaRegistryAddress);\n        DeviceObj.removeUrl(address(this), url);\n    }\n}\n\ncontract AshyaRegistry {\n    struct item {\n        \n        string iname;\n        string location;\n        string[] urls;\n        address ownerAddress;\n        uint index;\n        \n        }   \n\n    mapping(address => item) itemList;\n    address[] itemIndex;\n    \n    event LogNewItem (address indexed itemAddress, uint index, string iname, string location, string url, address ownerAddress);\n    event LogDeleteItem(address indexed itemAddress, uint index);\n    \n    function AshyaRegistry() public {\n        itemIndex.length = 0;\n    }\n\n    function addItem(string name, string location, string url,address itemAddress, address ownerAddress) public  {        \n        //var itemnew = item(name ,url, location, itemAddress);\n        itemList[itemAddress].iname = name;\n        itemList[itemAddress].location = location;\n        itemList[itemAddress].urls.push(url);\n        itemList[itemAddress].ownerAddress = ownerAddress; \n        itemList[itemAddress].index = itemIndex.push(itemAddress)-1;\n        \n        LogNewItem(\n            itemAddress,\n            itemList[itemAddress].index,\n            name,\n            location,\n            url,\n            ownerAddress);\n    }\n\n    function getItemCount()public constant returns (uint count) {     \n        return itemIndex.length;\n    }\n    \n    modifier onlyBy(address _itemAddress) {\n        require(msg.sender == itemList[_itemAddress].ownerAddress || msg.sender == address(this));\n        _;\n    }\n    \n//    function checkOwnership(address itemAddress) public{\n//        require(msg.sender == itemList[itemAddress].ownerAddress || msg.sender == address(this));\n//    } \n\n    function removeItem(address _itemAddress) public onlyBy(_itemAddress) {\n        //checkOwnership(itemAddress);\n        uint rowToDelete = itemList[_itemAddress].index;\n        address keyToMove = itemIndex[itemIndex.length-1];\n        itemIndex[rowToDelete] = keyToMove;\n        itemList[keyToMove].index = rowToDelete;\n        itemIndex.length--;\n        LogDeleteItem(\n            _itemAddress,\n            rowToDelete);\n    }\n    \n    function getItem(address itemAddress)public constant returns (string name, uint url, string location, uint index, address ownerAddress) {   \n        return (itemList[itemAddress].iname, itemList[itemAddress].urls.length, itemList[itemAddress].location, itemList[itemAddress].index, itemList[itemAddress].ownerAddress);\n    }\n    \n    function getItemAtIndex(uint index) public constant returns(address itemAddress) {\n        return itemIndex[index];\n    }\n    \n    function addUrl(address itemAddress, string url) public {\n        itemList[itemAddress].urls.push(url);\n    }\n    \n    function removeUrl(address itemAddress, string url) public {\n        // need to be done\n    }\n}\n\n",
  "sourcePath": "/Users/vallard/Code/CiscoBlockChain/AshyaRegistry/registry/contracts/ashyaRegistry.sol",
  "compiler": {
    "name": "solc",
    "version": "0.4.21+commit.dfe3193c.Emscripten.clang"
  },
  "schemaVersion": "2.0.0",
  "updatedAt": "2018-04-12T09:30:03.549Z"
}