{
  "contractName": "AshyaRegistry",
  "abi": [
    {
      "inputs": [],
      "payable": false,
      "stateMutability": "nonpayable",
      "type": "constructor"
    },
    {
      "anonymous": false,
      "inputs": [
        {
          "indexed": true,
          "name": "itemAddress",
          "type": "address"
        },
        {
          "indexed": false,
          "name": "index",
          "type": "uint256"
        },
        {
          "indexed": false,
          "name": "iname",
          "type": "string"
        },
        {
          "indexed": false,
          "name": "location",
          "type": "string"
        },
        {
          "indexed": false,
          "name": "url",
          "type": "string"
        },
        {
          "indexed": false,
          "name": "ownerAddress",
          "type": "address"
        }
      ],
      "name": "LogNewItem",
      "type": "event"
    },
    {
      "anonymous": false,
      "inputs": [
        {
          "indexed": true,
          "name": "itemAddress",
          "type": "address"
        },
        {
          "indexed": false,
          "name": "index",
          "type": "uint256"
        }
      ],
      "name": "LogDeleteItem",
      "type": "event"
    },
    {
      "constant": false,
      "inputs": [
        {
          "name": "name",
          "type": "string"
        },
        {
          "name": "location",
          "type": "string"
        },
        {
          "name": "url",
          "type": "string"
        },
        {
          "name": "itemAddress",
          "type": "address"
        },
        {
          "name": "ownerAddress",
          "type": "address"
        }
      ],
      "name": "addItem",
      "outputs": [],
      "payable": false,
      "stateMutability": "nonpayable",
      "type": "function"
    },
    {
      "constant": true,
      "inputs": [],
      "name": "getItemCount",
      "outputs": [
        {
          "name": "count",
          "type": "uint256"
        }
      ],
      "payable": false,
      "stateMutability": "view",
      "type": "function"
    },
    {
      "constant": false,
      "inputs": [
        {
          "name": "_itemAddress",
          "type": "address"
        }
      ],
      "name": "removeItem",
      "outputs": [],
      "payable": false,
      "stateMutability": "nonpayable",
      "type": "function"
    },
    {
      "constant": true,
      "inputs": [
        {
          "name": "itemAddress",
          "type": "address"
        }
      ],
      "name": "getItem",
      "outputs": [
        {
          "name": "name",
          "type": "string"
        },
        {
          "name": "url",
          "type": "uint256"
        },
        {
          "name": "location",
          "type": "string"
        },
        {
          "name": "index",
          "type": "uint256"
        },
        {
          "name": "ownerAddress",
          "type": "address"
        }
      ],
      "payable": false,
      "stateMutability": "view",
      "type": "function"
    },
    {
      "constant": true,
      "inputs": [
        {
          "name": "index",
          "type": "uint256"
        }
      ],
      "name": "getItemAtIndex",
      "outputs": [
        {
          "name": "itemAddress",
          "type": "address"
        }
      ],
      "payable": false,
      "stateMutability": "view",
      "type": "function"
    },
    {
      "constant": false,
      "inputs": [
        {
          "name": "itemAddress",
          "type": "address"
        },
        {
          "name": "url",
          "type": "string"
        }
      ],
      "name": "addUrl",
      "outputs": [],
      "payable": false,
      "stateMutability": "nonpayable",
      "type": "function"
    }
  ],
  "bytecode": "0x6060604052341561000f57600080fd5b600060018161001e9190610024565b50610075565b81548183558181151161004b5781836000526020600020918201910161004a9190610050565b5b505050565b61007291905b8082111561006e576000816000905550600101610056565b5090565b90565b61107c806100846000396000f300606060405260043610610078576000357c0100000000000000000000000000000000000000000000000000000000900463ffffffff16806314d8c9811461007d578063399fa840146101dc5780637749cf23146102155780639958ea9d1461023e578063f1f07c541461035f578063f215afe0146103db575b600080fd5b341561008857600080fd5b6100b4600480803573ffffffffffffffffffffffffffffffffffffffff1690602001909190505061043e565b6040518080602001868152602001806020018581526020018473ffffffffffffffffffffffffffffffffffffffff1673ffffffffffffffffffffffffffffffffffffffff168152602001838103835288818151815260200191508051906020019080838360005b8381101561013657808201518184015260208101905061011b565b50505050905090810190601f1680156101635780820380516001836020036101000a031916815260200191505b50838103825286818151815260200191508051906020019080838360005b8381101561019c578082015181840152602081019050610181565b50505050905090810190601f1680156101c95780820380516001836020036101000a031916815260200191505b5097505050505050505060405180910390f35b34156101e757600080fd5b610213600480803573ffffffffffffffffffffffffffffffffffffffff16906020019091905050610709565b005b341561022057600080fd5b61022861096e565b6040518082815260200191505060405180910390f35b341561024957600080fd5b61035d600480803590602001908201803590602001908080601f0160208091040260200160405190810160405280939291908181526020018383808284378201915050505050509190803590602001908201803590602001908080601f0160208091040260200160405190810160405280939291908181526020018383808284378201915050505050509190803590602001908201803590602001908080601f0160208091040260200160405190810160405280939291908181526020018383808284378201915050505050509190803573ffffffffffffffffffffffffffffffffffffffff1690602001909190803573ffffffffffffffffffffffffffffffffffffffff1690602001909190505061097b565b005b341561036a57600080fd5b6103d9600480803573ffffffffffffffffffffffffffffffffffffffff1690602001909190803590602001908201803590602001908080601f01602080910402602001604051908101604052809392919081815260200183838082843782019150505050505091905050610ddc565b005b34156103e657600080fd5b6103fc6004808035906020019091905050610e5b565b604051808273ffffffffffffffffffffffffffffffffffffffff1673ffffffffffffffffffffffffffffffffffffffff16815260200191505060405180910390f35b610446610e9f565b6000610450610e9f565b6000806000808773ffffffffffffffffffffffffffffffffffffffff1673ffffffffffffffffffffffffffffffffffffffff1681526020019081526020016000206000016000808873ffffffffffffffffffffffffffffffffffffffff1673ffffffffffffffffffffffffffffffffffffffff168152602001908152602001600020600201805490506000808973ffffffffffffffffffffffffffffffffffffffff1673ffffffffffffffffffffffffffffffffffffffff1681526020019081526020016000206001016000808a73ffffffffffffffffffffffffffffffffffffffff1673ffffffffffffffffffffffffffffffffffffffff168152602001908152602001600020600401546000808b73ffffffffffffffffffffffffffffffffffffffff1673ffffffffffffffffffffffffffffffffffffffff16815260200190815260200160002060030160009054906101000a900473ffffffffffffffffffffffffffffffffffffffff16848054600181600116156101000203166002900480601f0160208091040260200160405190810160405280929190818152602001828054600181600116156101000203166002900480156106535780601f1061062857610100808354040283529160200191610653565b820191906000526020600020905b81548152906001019060200180831161063657829003601f168201915b50505050509450828054600181600116156101000203166002900480601f0160208091040260200160405190810160405280929190818152602001828054600181600116156101000203166002900480156106ef5780601f106106c4576101008083540402835291602001916106ef565b820191906000526020600020905b8154815290600101906020018083116106d257829003601f168201915b505050505092509450945094509450945091939590929450565b600080826000808273ffffffffffffffffffffffffffffffffffffffff1673ffffffffffffffffffffffffffffffffffffffff16815260200190815260200160002060030160009054906101000a900473ffffffffffffffffffffffffffffffffffffffff1673ffffffffffffffffffffffffffffffffffffffff163373ffffffffffffffffffffffffffffffffffffffff1614806107d357503073ffffffffffffffffffffffffffffffffffffffff163373ffffffffffffffffffffffffffffffffffffffff16145b15156107de57600080fd5b6000808573ffffffffffffffffffffffffffffffffffffffff1673ffffffffffffffffffffffffffffffffffffffff16815260200190815260200160002060040154925060018080805490500381548110151561083757fe5b906000526020600020900160009054906101000a900473ffffffffffffffffffffffffffffffffffffffff1691508160018481548110151561087557fe5b906000526020600020900160006101000a81548173ffffffffffffffffffffffffffffffffffffffff021916908373ffffffffffffffffffffffffffffffffffffffff160217905550826000808473ffffffffffffffffffffffffffffffffffffffff1673ffffffffffffffffffffffffffffffffffffffff1681526020019081526020016000206004018190555060018054809190600190036109199190610eb3565b508373ffffffffffffffffffffffffffffffffffffffff167fd419bb5d2c2c506960db61407b0d1c3f9a900c5179e3018fcc41931b8c6a6a0b846040518082815260200191505060405180910390a250505050565b6000600180549050905090565b846000808473ffffffffffffffffffffffffffffffffffffffff1673ffffffffffffffffffffffffffffffffffffffff16815260200190815260200160002060000190805190602001906109d0929190610edf565b50836000808473ffffffffffffffffffffffffffffffffffffffff1673ffffffffffffffffffffffffffffffffffffffff1681526020019081526020016000206001019080519060200190610a26929190610edf565b506000808373ffffffffffffffffffffffffffffffffffffffff1673ffffffffffffffffffffffffffffffffffffffff1681526020019081526020016000206002018054806001018281610a7a9190610f5f565b916000526020600020900160008590919091509080519060200190610aa0929190610edf565b5050806000808473ffffffffffffffffffffffffffffffffffffffff1673ffffffffffffffffffffffffffffffffffffffff16815260200190815260200160002060030160006101000a81548173ffffffffffffffffffffffffffffffffffffffff021916908373ffffffffffffffffffffffffffffffffffffffff1602179055506001808054806001018281610b379190610f8b565b9160005260206000209001600085909190916101000a81548173ffffffffffffffffffffffffffffffffffffffff021916908373ffffffffffffffffffffffffffffffffffffffff160217905550036000808473ffffffffffffffffffffffffffffffffffffffff1673ffffffffffffffffffffffffffffffffffffffff168152602001908152602001600020600401819055508173ffffffffffffffffffffffffffffffffffffffff167f4109d0e7451db49066c5c8e828cdc7611017c471cf63bb05e1173be0de01ee606000808573ffffffffffffffffffffffffffffffffffffffff1673ffffffffffffffffffffffffffffffffffffffff1681526020019081526020016000206004015487878786604051808681526020018060200180602001806020018573ffffffffffffffffffffffffffffffffffffffff1673ffffffffffffffffffffffffffffffffffffffff168152602001848103845288818151815260200191508051906020019080838360005b83811015610cc9578082015181840152602081019050610cae565b50505050905090810190601f168015610cf65780820380516001836020036101000a031916815260200191505b50848103835287818151815260200191508051906020019080838360005b83811015610d2f578082015181840152602081019050610d14565b50505050905090810190601f168015610d5c5780820380516001836020036101000a031916815260200191505b50848103825286818151815260200191508051906020019080838360005b83811015610d95578082015181840152602081019050610d7a565b50505050905090810190601f168015610dc25780820380516001836020036101000a031916815260200191505b509850505050505050505060405180910390a25050505050565b6000808373ffffffffffffffffffffffffffffffffffffffff1673ffffffffffffffffffffffffffffffffffffffff1681526020019081526020016000206002018054806001018281610e2f9190610f5f565b916000526020600020900160008390919091509080519060200190610e55929190610edf565b50505050565b6000600182815481101515610e6c57fe5b906000526020600020900160009054906101000a900473ffffffffffffffffffffffffffffffffffffffff169050919050565b602060405190810160405280600081525090565b815481835581811511610eda57818360005260206000209182019101610ed99190610fb7565b5b505050565b828054600181600116156101000203166002900490600052602060002090601f016020900481019282601f10610f2057805160ff1916838001178555610f4e565b82800160010185558215610f4e579182015b82811115610f4d578251825591602001919060010190610f32565b5b509050610f5b9190610fb7565b5090565b815481835581811511610f8657818360005260206000209182019101610f859190610fdc565b5b505050565b815481835581811511610fb257818360005260206000209182019101610fb19190610fb7565b5b505050565b610fd991905b80821115610fd5576000816000905550600101610fbd565b5090565b90565b61100591905b808211156110015760008181610ff89190611008565b50600101610fe2565b5090565b90565b50805460018160011615610100020316600290046000825580601f1061102e575061104d565b601f01602090049060005260206000209081019061104c9190610fb7565b5b505600a165627a7a72305820086108dc8d6383f0ca64c1a31bfd9bec4420af7f51f74e802cabeda26e26c0110029",
  "source": "pragma solidity ^0.4.19;\n\ncontract AshyaRegistry {\n    struct item {\n        \n        string iname;\n        string location;\n        string[] urls;\n        address ownerAddress;\n        uint index;\n        \n        }   \n\n    mapping(address => item) itemList;\n    address[] itemIndex;\n    \n    event LogNewItem (address indexed itemAddress, uint index, string iname, string location, string url, address ownerAddress);\n    event LogDeleteItem(address indexed itemAddress, uint index);\n    \n    function AshyaRegistry() public {\n        itemIndex.length = 0;\n    }\n\n    function addItem(string name, string location, string url,address itemAddress, address ownerAddress) public  {        \n        //var itemnew = item(name ,url, location, itemAddress);\n        itemList[itemAddress].iname = name;\n        itemList[itemAddress].location = location;\n        itemList[itemAddress].urls.push(url);\n        itemList[itemAddress].ownerAddress = ownerAddress; \n        itemList[itemAddress].index = itemIndex.push(itemAddress)-1;\n        \n        emit LogNewItem(\n            itemAddress,\n            itemList[itemAddress].index,\n            name,\n            location,\n            url,\n            ownerAddress);\n    }\n\n    function getItemCount()public constant returns (uint count) {     \n        return itemIndex.length;\n    }\n    \n    modifier onlyBy(address _itemAddress) {\n        require(msg.sender == itemList[_itemAddress].ownerAddress || msg.sender == address(this));\n        _;\n    }\n    \n//    function checkOwnership(address itemAddress) public{\n//        require(msg.sender == itemList[itemAddress].ownerAddress || msg.sender == address(this));\n//    } \n\n    function removeItem(address _itemAddress) public onlyBy(_itemAddress) {\n        //checkOwnership(itemAddress);\n        uint rowToDelete = itemList[_itemAddress].index;\n        address keyToMove = itemIndex[itemIndex.length-1];\n        itemIndex[rowToDelete] = keyToMove;\n        itemList[keyToMove].index = rowToDelete;\n        itemIndex.length--;\n        emit LogDeleteItem(\n            _itemAddress,\n            rowToDelete);\n    }\n    \n    function getItem(address itemAddress)public constant returns (string name, uint url, string location, uint index, address ownerAddress) {   \n        return (itemList[itemAddress].iname, itemList[itemAddress].urls.length, itemList[itemAddress].location, itemList[itemAddress].index, itemList[itemAddress].ownerAddress);\n    }\n    \n    function getItemAtIndex(uint index) public constant returns(address itemAddress) {\n        return itemIndex[index];\n    }\n    \n    function addUrl(address itemAddress, string url) public {\n        itemList[itemAddress].urls.push(url);\n    }\n}\n\n",
  "sourcePath": "/Users/vallard/Code/CiscoBlockChain/AshyaRegistry/registry/contracts/ashyaRegistry.sol",
  "compiler": {
    "name": "solc",
    "version": "0.4.21+commit.dfe3193c.Emscripten.clang"
  },
  "schemaVersion": "2.0.0",
  "updatedAt": "2018-04-12T09:44:17.194Z"
}