{
  "contractName": "AshyaRegistry",
  "abi": [
    {
      "inputs": [],
      "payable": false,
      "stateMutability": "nonpayable",
      "type": "constructor"
    },
    {
      "constant": true,
      "inputs": [],
      "name": "getItemCount",
      "outputs": [
        {
          "name": "count",
          "type": "uint256"
        }
      ],
      "payable": false,
      "stateMutability": "view",
      "type": "function"
    },
    {
      "constant": false,
      "inputs": [
        {
          "name": "_name",
          "type": "string"
        },
        {
          "name": "_location",
          "type": "string"
        },
        {
          "name": "_url",
          "type": "string"
        }
      ],
      "name": "addItem",
      "outputs": [],
      "payable": true,
      "stateMutability": "payable",
      "type": "function"
    },
    {
      "constant": false,
      "inputs": [
        {
          "name": "_itemAddress",
          "type": "address"
        }
      ],
      "name": "removeItem",
      "outputs": [],
      "payable": false,
      "stateMutability": "nonpayable",
      "type": "function"
    },
    {
      "constant": true,
      "inputs": [
        {
          "name": "itemAddress",
          "type": "address"
        }
      ],
      "name": "getItem",
      "outputs": [
        {
          "name": "name",
          "type": "string"
        },
        {
          "name": "location",
          "type": "string"
        },
        {
          "name": "url",
          "type": "string"
        },
        {
          "name": "index",
          "type": "uint256"
        }
      ],
      "payable": false,
      "stateMutability": "view",
      "type": "function"
    },
    {
      "constant": true,
      "inputs": [
        {
          "name": "index",
          "type": "uint256"
        }
      ],
      "name": "getItemAtIndex",
      "outputs": [
        {
          "name": "itemAddress",
          "type": "address"
        }
      ],
      "payable": false,
      "stateMutability": "view",
      "type": "function"
    }
  ],
  "bytecode": "0x6080604052662386f26fc1000060005534801561001b57600080fd5b50600060028161002b9190610031565b50610082565b81548183558181111561005857818360005260206000209182019101610057919061005d565b5b505050565b61007f91905b8082111561007b576000816000905550600101610063565b5090565b90565b610f01806100916000396000f30060806040526004361061006d576000357c0100000000000000000000000000000000000000000000000000000000900463ffffffff16806314d8c98114610072578063339ba3491461020d578063399fa840146102f55780637749cf2314610338578063f215afe014610363575b600080fd5b34801561007e57600080fd5b506100b3600480360381019080803573ffffffffffffffffffffffffffffffffffffffff1690602001909291905050506103d0565b60405180806020018060200180602001858152602001848103845288818151815260200191508051906020019080838360005b838110156101015780820151818401526020810190506100e6565b50505050905090810190601f16801561012e5780820380516001836020036101000a031916815260200191505b50848103835287818151815260200191508051906020019080838360005b8381101561016757808201518184015260208101905061014c565b50505050905090810190601f1680156101945780820380516001836020036101000a031916815260200191505b50848103825286818151815260200191508051906020019080838360005b838110156101cd5780820151818401526020810190506101b2565b50505050905090810190601f1680156101fa5780820380516001836020036101000a031916815260200191505b5097505050505050505060405180910390f35b6102f3600480360381019080803590602001908201803590602001908080601f0160208091040260200160405190810160405280939291908181526020018383808284378201915050505050509192919290803590602001908201803590602001908080601f0160208091040260200160405190810160405280939291908181526020018383808284378201915050505050509192919290803590602001908201803590602001908080601f01602080910402602001604051908101604052809392919081815260200183838082843782019150505050505091929192905050506106c3565b005b34801561030157600080fd5b50610336600480360381019080803573ffffffffffffffffffffffffffffffffffffffff169060200190929190505050610c32565b005b34801561034457600080fd5b5061034d610db4565b6040518082815260200191505060405180910390f35b34801561036f57600080fd5b5061038e60048036038101908080359060200190929190505050610dc1565b604051808273ffffffffffffffffffffffffffffffffffffffff1673ffffffffffffffffffffffffffffffffffffffff16815260200191505060405180910390f35b60608060606000600160008673ffffffffffffffffffffffffffffffffffffffff1673ffffffffffffffffffffffffffffffffffffffff168152602001908152602001600020600001600160008773ffffffffffffffffffffffffffffffffffffffff1673ffffffffffffffffffffffffffffffffffffffff168152602001908152602001600020600201600160008873ffffffffffffffffffffffffffffffffffffffff1673ffffffffffffffffffffffffffffffffffffffff168152602001908152602001600020600101600160008973ffffffffffffffffffffffffffffffffffffffff1673ffffffffffffffffffffffffffffffffffffffff16815260200190815260200160002060040154838054600181600116156101000203166002900480601f0160208091040260200160405190810160405280929190818152602001828054600181600116156101000203166002900480156105755780601f1061054a57610100808354040283529160200191610575565b820191906000526020600020905b81548152906001019060200180831161055857829003601f168201915b50505050509350828054600181600116156101000203166002900480601f0160208091040260200160405190810160405280929190818152602001828054600181600116156101000203166002900480156106115780601f106105e657610100808354040283529160200191610611565b820191906000526020600020905b8154815290600101906020018083116105f457829003601f168201915b50505050509250818054600181600116156101000203166002900480601f0160208091040260200160405190810160405280929190818152602001828054600181600116156101000203166002900480156106ad5780601f10610682576101008083540402835291602001916106ad565b820191906000526020600020905b81548152906001019060200180831161069057829003601f168201915b5050505050915093509350935093509193509193565b60005434101515156106d457600080fd5b828282600080600060019250600091505b6106ed610db4565b821015610a68576106fd82610dc1565b9050856040518082805190602001908083835b6020831015156107355780518252602082019150602081019050602083039250610710565b6001836020036101000a038019825116818451168082178552505050505050905001915050604051809103902060001916600160008373ffffffffffffffffffffffffffffffffffffffff1673ffffffffffffffffffffffffffffffffffffffff16815260200190815260200160002060000160405180828054600181600116156101000203166002900480156108035780601f106107e1576101008083540402835291820191610803565b820191906000526020600020905b8154815290600101906020018083116107ef575b50509150506040518091039020600019161480156109335750836040518082805190602001908083835b602083101515610852578051825260208201915060208101905060208303925061082d565b6001836020036101000a038019825116818451168082178552505050505050905001915050604051809103902060001916600160008373ffffffffffffffffffffffffffffffffffffffff1673ffffffffffffffffffffffffffffffffffffffff16815260200190815260200160002060020160405180828054600181600116156101000203166002900480156109205780601f106108fe576101008083540402835291820191610920565b820191906000526020600020905b81548152906001019060200180831161090c575b5050915050604051809103902060001916145b8015610a515750846040518082805190602001908083835b602083101515610970578051825260208201915060208101905060208303925061094b565b6001836020036101000a038019825116818451168082178552505050505050905001915050604051809103902060001916600160008373ffffffffffffffffffffffffffffffffffffffff1673ffffffffffffffffffffffffffffffffffffffff1681526020019081526020016000206001016040518082805460018160011615610100020316600290048015610a3e5780601f10610a1c576101008083540402835291820191610a3e565b820191906000526020600020905b815481529060010190602001808311610a2a575b5050915050604051809103902060001916145b15610a5b57600092505b81806001019250506106e5565b821515610a7457600080fd5b88600160003373ffffffffffffffffffffffffffffffffffffffff1673ffffffffffffffffffffffffffffffffffffffff1681526020019081526020016000206000019080519060200190610aca929190610e04565b5087600160003373ffffffffffffffffffffffffffffffffffffffff1673ffffffffffffffffffffffffffffffffffffffff1681526020019081526020016000206002019080519060200190610b21929190610e04565b5086600160003373ffffffffffffffffffffffffffffffffffffffff1673ffffffffffffffffffffffffffffffffffffffff1681526020019081526020016000206001019080519060200190610b78929190610e04565b50600160023390806001815401808255809150509060018203906000526020600020016000909192909190916101000a81548173ffffffffffffffffffffffffffffffffffffffff021916908373ffffffffffffffffffffffffffffffffffffffff16021790555003600160003373ffffffffffffffffffffffffffffffffffffffff1673ffffffffffffffffffffffffffffffffffffffff16815260200190815260200160002060040181905550505050505050505050565b600080828073ffffffffffffffffffffffffffffffffffffffff163373ffffffffffffffffffffffffffffffffffffffff16141515610c7057600080fd5b600160008573ffffffffffffffffffffffffffffffffffffffff1673ffffffffffffffffffffffffffffffffffffffff1681526020019081526020016000206004015492506002600160028054905003815481101515610ccc57fe5b9060005260206000200160009054906101000a900473ffffffffffffffffffffffffffffffffffffffff16915081600284815481101515610d0957fe5b9060005260206000200160006101000a81548173ffffffffffffffffffffffffffffffffffffffff021916908373ffffffffffffffffffffffffffffffffffffffff16021790555082600160008473ffffffffffffffffffffffffffffffffffffffff1673ffffffffffffffffffffffffffffffffffffffff168152602001908152602001600020600401819055506002805480919060019003610dad9190610e84565b5050505050565b6000600280549050905090565b6000600282815481101515610dd257fe5b9060005260206000200160009054906101000a900473ffffffffffffffffffffffffffffffffffffffff169050919050565b828054600181600116156101000203166002900490600052602060002090601f016020900481019282601f10610e4557805160ff1916838001178555610e73565b82800160010185558215610e73579182015b82811115610e72578251825591602001919060010190610e57565b5b509050610e809190610eb0565b5090565b815481835581811115610eab57818360005260206000209182019101610eaa9190610eb0565b5b505050565b610ed291905b80821115610ece576000816000905550600101610eb6565b5090565b905600a165627a7a72305820f51cf448783f15c6a16e861a634cdf8226b627d9b3181964f3af897ecfea23630029",
  "source": "pragma solidity ^0.4.19;\r\n\r\ncontract AshyaRegistry {\r\n\r\n    uint price = 0.01 ether;\r\n    struct item {\r\n        string name;\r\n        string url;\r\n        string location;\r\n        address ownerAddress;\r\n        uint index;\r\n    }\r\n    mapping(address => item) itemList;\r\n    address[] itemIndex;\r\n\r\n    modifier CheckPrice()\r\n    {\r\n        require(msg.value >= price);\r\n        _;\r\n    }\r\n    modifier onlyBy(address _itemAddress)\r\n    {\r\n        require(msg.sender == _itemAddress);\r\n        _;\r\n    }\r\n   \r\n    // Only let it add if it has not yet been added. \r\n    modifier canAdd(string _name, string _url, string _location) \r\n    {\r\n        bool newItem = true;\r\n        for(uint i = 0; i < getItemCount(); i++){\r\n            address itemAddress = getItemAtIndex(i);\r\n            if ((keccak256(itemList[itemAddress].name) == keccak256(_name)) && (keccak256(itemList[itemAddress].location) == keccak256(_location)) && (keccak256(itemList[itemAddress].url) == keccak256(_url))) {\r\n                newItem = false;\r\n            }\r\n        }\r\n        require(newItem);\r\n        _;\r\n    }\r\n\r\n    function AshyaRegistry()public{\r\n        itemIndex.length = 0;\r\n        \r\n    }\r\n    \r\n    function getItemCount()public constant returns(uint count){\r\n        return itemIndex.length;\r\n    }\r\n\r\n    function addItem(string _name, string _location, string _url) public payable CheckPrice canAdd(_name,_location,_url){\r\n        itemList[msg.sender].name = _name;\r\n        itemList[msg.sender].location = _location;\r\n        itemList[msg.sender].url = _url;\r\n        itemList[msg.sender].index = itemIndex.push(msg.sender)-1;\r\n    }\r\n\r\n    function removeItem(address _itemAddress)public onlyBy(_itemAddress){\r\n        uint rowToDelete = itemList[_itemAddress].index;\r\n        address keyToMove = itemIndex[itemIndex.length-1];\r\n        itemIndex[rowToDelete] = keyToMove;\r\n        itemList[keyToMove].index = rowToDelete;\r\n        itemIndex.length--;\r\n    }\r\n\r\n    function getItem(address itemAddress)public constant returns(string name, string location, string url, uint index) {\r\n        return(itemList[itemAddress].name,itemList[itemAddress].location,itemList[itemAddress].url,itemList[itemAddress].index);\r\n    }\r\n\r\n    function getItemAtIndex(uint index) public constant returns(address itemAddress) {\r\n        return itemIndex[index];\r\n        \r\n    }\r\n}\r\n",
  "sourcePath": "C:\\CiscoBlockchain\\AshyaRegistry\\contracts\\ashyaRegistry.sol",
  "compiler": {
    "name": "solc",
    "version": "0.4.24+commit.e67f0147.Emscripten.clang"
  },
  "schemaVersion": "2.0.1",
  "updatedAt": "2018-11-07T08:20:20.161Z"
}