{
  "contractName": "AshyaDevice",
  "abi": [
    {
      "constant": true,
      "inputs": [],
      "name": "owner",
      "outputs": [
        {
          "name": "",
          "type": "address"
        }
      ],
      "payable": false,
      "stateMutability": "view",
      "type": "function"
    },
    {
      "inputs": [
        {
          "name": "name",
          "type": "string"
        },
        {
          "name": "location",
          "type": "string"
        },
        {
          "name": "url",
          "type": "string"
        }
      ],
      "payable": true,
      "stateMutability": "payable",
      "type": "constructor"
    },
    {
      "constant": false,
      "inputs": [
        {
          "name": "AshyaRegistryAddress",
          "type": "address"
        }
      ],
      "name": "setAshyaDevice",
      "outputs": [],
      "payable": false,
      "stateMutability": "nonpayable",
      "type": "function"
    },
    {
      "constant": false,
      "inputs": [
        {
          "name": "url",
          "type": "string"
        }
      ],
      "name": "AddUrl",
      "outputs": [],
      "payable": true,
      "stateMutability": "payable",
      "type": "function"
    },
    {
      "constant": true,
      "inputs": [],
      "name": "getUrlsCount",
      "outputs": [
        {
          "name": "count",
          "type": "uint256"
        }
      ],
      "payable": false,
      "stateMutability": "view",
      "type": "function"
    }
  ],
  "bytecode": "0x606060405266038d7ea4c6800060015533600260006101000a81548173ffffffffffffffffffffffffffffffffffffffff021916908373ffffffffffffffffffffffffffffffffffffffff16021790555060405161062c38038061062c833981016040528080518201919060200180518201919060200180518201919050506001543414151561008e57600080fd5b600360009054906101000a900473ffffffffffffffffffffffffffffffffffffffff1673ffffffffffffffffffffffffffffffffffffffff1663339ba3496001548585856040518563ffffffff167c010000000000000000000000000000000000000000000000000000000002815260040180806020018060200180602001848103845287818151815260200191508051906020019080838360005b8381101561014557808201518184015260208101905061012a565b50505050905090810190601f1680156101725780820380516001836020036101000a031916815260200191505b50848103835286818151815260200191508051906020019080838360005b838110156101ab578082015181840152602081019050610190565b50505050905090810190601f1680156101d85780820380516001836020036101000a031916815260200191505b50848103825285818151815260200191508051906020019080838360005b838110156102115780820151818401526020810190506101f6565b50505050905090810190601f16801561023e5780820380516001836020036101000a031916815260200191505b5096505050505050506000604051808303818588803b151561025f57600080fd5b6125ee5a03f1151561027057600080fd5b505050505050506103a6806102866000396000f300606060405260043610610062576000357c0100000000000000000000000000000000000000000000000000000000900463ffffffff1680631014c0d3146100675780635dd9e1b8146100b95780638da5cb5b146100e25780639f13f97914610137575b600080fd5b6100b7600480803590602001908201803590602001908080601f01602080910402602001604051908101604052809392919081815260200183838082843782019150505050505091905050610170565b005b34156100c457600080fd5b6100cc6101bf565b6040518082815260200191505060405180910390f35b34156100ed57600080fd5b6100f56101cb565b604051808273ffffffffffffffffffffffffffffffffffffffff1673ffffffffffffffffffffffffffffffffffffffff16815260200191505060405180910390f35b341561014257600080fd5b61016e600480803573ffffffffffffffffffffffffffffffffffffffff169060200190919050506101f1565b005b6001543414151561018057600080fd5b600080548060010182816101949190610235565b9160005260206000209001600083909190915090805190602001906101ba929190610261565b505050565b60008080549050905090565b600260009054906101000a900473ffffffffffffffffffffffffffffffffffffffff1681565b80600360006101000a81548173ffffffffffffffffffffffffffffffffffffffff021916908373ffffffffffffffffffffffffffffffffffffffff16021790555050565b81548183558181151161025c5781836000526020600020918201910161025b91906102e1565b5b505050565b828054600181600116156101000203166002900490600052602060002090601f016020900481019282601f106102a257805160ff19168380011785556102d0565b828001600101855582156102d0579182015b828111156102cf5782518255916020019190600101906102b4565b5b5090506102dd919061030d565b5090565b61030a91905b8082111561030657600081816102fd9190610332565b506001016102e7565b5090565b90565b61032f91905b8082111561032b576000816000905550600101610313565b5090565b90565b50805460018160011615610100020316600290046000825580601f106103585750610377565b601f016020900490600052602060002090810190610376919061030d565b5b505600a165627a7a723058201f70d4846e4ce51dff9447bca076991c17f636f91faa0cd22036d054cb89670d0029",
  "source": "pragma solidity ^0.4.19;\n\ncontract AshyaDevice {\n    //address AshyaRegistryAddress= 0x35ef07393b57464e93deb59175ff72e6499450cf;\n    string[] urls;\n    uint AddingPrice = 0.0010 ether;\n    address public owner = msg.sender;\n    AshyaRegistry deviceObj;\n\n    modifier CheckPrice(){\n        require(msg.value == AddingPrice);\n        _;\n    }\n\n    function AshyaDevice(string name, string location, string url) public payable CheckPrice() {\n        deviceObj.addItem.value(AddingPrice)(name,location,url);\n    \n    }\n\n    function setAshyaDevice(address AshyaRegistryAddress) public {\n        deviceObj = AshyaRegistry(AshyaRegistryAddress);\n    }\n\n    function AddUrl(string url)public payable CheckPrice(){\n        urls.push(url);\n        \n    }\n    function getUrlsCount()public constant returns(uint count) {\n        return urls.length;\n        \n    }\n}\n\n\ncontract AshyaRegistry{\n\n    uint price = 0.0010 ether;\n    struct item{\n        string name;\n        string url;\n        string location;\n        address ownerAddress;\n        uint index;\n    }\n    mapping(address => item) itemList;\n    address[] itemIndex;\n\n\n    modifier CheckPrice()\n    {\n        require(msg.value >= price);\n        _;\n    }\n    modifier onlyBy(address _itemAddress)\n    {\n        require(msg.sender == AshyaDevice(_itemAddress).owner());\n        _;\n    }\n    \n    modifier canAdd(string _name, string _url, string _location) \n    {\n        bool newItem = true;\n        for(uint i = 0; i < getItemCount(); i++){\n            address itemAddress = getItemAtIndex(i);\n            if ((keccak256(itemList[itemAddress].name) == keccak256(_name)) && (keccak256(itemList[itemAddress].location) == keccak256(_location)) && (keccak256(itemList[itemAddress].url) == keccak256(_url))) {\n                newItem = false;\n            }\n        }\n        require(newItem);\n        _;\n    }\n\n    function AshyaRegistry()public{\n        itemIndex.length = 0;\n        \n    }\n    \n    function getItemCount()public constant returns(uint count){\n        return itemIndex.length;\n    }\n    function addItem(string _name, string _location, string _url) public payable CheckPrice canAdd(_name,_location,_url){\n        itemList[msg.sender].name = _name;\n        itemList[msg.sender].location = _location;\n        itemList[msg.sender].url= _url;\n        itemList[msg.sender].index = itemIndex.push(msg.sender)-1;\n\n\n    }\n    function removeItem(address _itemAddress)public onlyBy(_itemAddress){\n        uint rowToDelete = itemList[_itemAddress].index;\n        address keyToMove = itemIndex[itemIndex.length-1];\n        itemIndex[rowToDelete] = keyToMove;\n        itemList[keyToMove].index = rowToDelete;\n        itemIndex.length--;\n    }\n    function getItem(address itemAddress)public constant returns(string name, string location, string url, uint index)\n    {\n        return(itemList[itemAddress].name,itemList[itemAddress].location,itemList[itemAddress].url,itemList[itemAddress].index);\n    }\n    function getItemAtIndex(uint index) public constant returns(address itemAddress) {\n        return itemIndex[index];\n        \n    }\n}",
  "sourcePath": "/Users/sajustin/AshyaProject/AshyaRegistry/contracts/ashyaRegistry.sol",
  "compiler": {
    "name": "solc",
    "version": "0.4.19+commit.c4cbbb05.Emscripten.clang"
  },
  "schemaVersion": "1.0.1",
  "updatedAt": "2018-04-30T12:38:35.208Z"
}